:0400000007EF00F016
:100008004C8209ED00F068EF01F00600FACF03F02A
:10001800FBCF04F0E9CF05F0EACF06F0E1CF07F017
:10002800E2CF08F0D9CF09F0DACF0AF0F3CF0BF01E
:10003800F4CF0CF0F6CF0DF0F7CF0EF0F8CF0FF0AD
:10004800F5CF10F04CC011F04DC012F04EC013F0B7
:100058004FC014F0F0B6F0A0ACD081380F0B0F0BE6
:10006800156E36D089A02BD0010E2AD089A202D0D5
:10007800010E01D0000EFF0A016E014689500118D9
:10008800FD0B23D089A402D0010E01D0000EFF0A77
:10009800016E0146014689500118FB0B16D089A64E
:1000A80002D0010E01D0000EFF0A016E0146014682
:1000B800014689500118F70B08D089B0D5D7000E32
:1000C800FF0A016E89500118FE0B0118896E17D0BE
:1000D8001550010DBB0EF324F66EFE0EF420F76EDC
:1000E8000800F550310AD8B4BDD7030AD8B4BED732
:1000F800010AD8B4C7D7070AD8B4D1D7DED7080EB3
:10010800026E9D0E016E060EE82EFED7012EFCD75C
:10011800022EFAD736D089A02BD0010E2AD089A278
:1001280002D0010E01D0000EFF0A016E014689506F
:100138000118FD0B23D089A402D0010E01D0000EB6
:10014800FF0A016E0146014689500118FB0B16D0C3
:1001580089A602D0010E01D0000EFF0A016E0146E9
:100168000146014689500118F70B08D089B0D5D748
:10017800000EFF0A016E89500118FE0B0118896EE6
:1001880017D01550010DBB0EF324F66EFE0EF420A9
:10019800F76E0800F550310AD8B4BDD7030AD8B4B1
:1001A800BED7010AD8B4C7D7070AD8B4D1D7DED783
:1001B800F09014C04FF013C04EF012C04DF011C0B3
:1001C8004CF010C0F5FF0FC0F8FF0EC0F7FF0DC0D0
:1001D800F6FF0CC0F4FF0BC0F3FF0AC0DAFF09C03A
:1001E800D9FF08C0E2FF07C0E1FF06C0EAFF05C06B
:1001F800E9FF04C0FBFF03C0FAFF4C92110020EE98
:1002080046F010EE1EF0050EDBCFE3FFE806FCE239
:1002180020EE37F010EE16F0070EDBCFE3FFE8060E
:10022800FCE2000E896E000E8A6E000E8B6E000EC8
:100238008C6E000E8D6E000E926E9368E00E946EBA
:10024800000E956E000E966E000EC26E0F0EC16EF9
:10025800000E266E000E256E000E246EF086F28EBD
:1002680007EF00F042303030004E3030300053306D
:100278003030005730303000424E3030004253307A
:100288003000425730300042424E30004242533034
:10029800004242573000424E573000425357300018
:1002A8004257573000424E57570042535757004263
:1002B8004253570042424E5700424E4E5700424E5C
:1002C8004E4E0042575757006C0EF66E020EF76EF0
:1002D800000EF86E00EE80F010EE64F00900F5CF25
:1002E800EEFFE550E150FAE12A0EF66E030EF76EC6
:1002F800000EF86E00EE40F010EE0CF00900F5CF9D
:10030800EEFFE550E150FAE100EE27F0190EEE6A33
:10031800E806FDE14C904C92000EF86E000103EFE8
:0E03280001F030303030303030303030303096
:10FEBA00003132334134353642373839432A302318
:10FECA00440001000A006400E80310270100100042
:10FEDA000001001002000300020004000053150193
:10FEEA00050218424E53570000010210022825301D
:10FEFA0032782F253032782F32302530327820254B
:10FF0A003032783A2530327800303132333435366F
:10FF1A00373839616263646566005345543F20315E
:10FF2A003233343D7B424E53577D0054494D453A56
:10FF3A002564532E20484954204100434F4E5449CA
:10FF4A004E55453F204849542041004F4C444553A3
:10FF5A00543A20412C422C432C4400422D4C4F470A
:10FF6A002C4F5220432D4241434B00494E56414C9F
:10FF7A00494420494E50555421004C4546543A2094
:10FF8A002564422C25644E2C004E554D2053455471
:10FF9A00532F535445503F002564532C2564572E44
:10FFAA00204849542041004C4F4753204E4557455D
:10FFBA00535420544F0048495420412D5354415220
:10FFCA00542C004F5045524154494E472E2E2E0074
:10FFDA00232D434F4E4649524D20004E554D205336
:10FFEA00544550533F00444F4E453A25635B0078D1
:05FFFA0025635D00001D
:020000040020DA
:08000000FFFFFFFFFFFFFFFF00
:020000040030CA
:0E000000FF061F1EFF8181FF0FC00FE00F40A3
:00000001FF
