:0400000007EF00F016
:100008006B8269ED07F0C8EF09F0230E376E000E1A
:10001800386EB8D1250E3E18D8B404D03E509BECAB
:100028000BF0B0D1000E3D6E000E3C6E000E3B6E24
:1000380003D03B84214A222A21C0F6FF22C0F7FFC1
:100048000800F550300AD8B4F4D721C0F6FF22C012
:10005800F7FF0800F55066EC0BF0D8A076D0000E3C
:100068003D6E000E3C6E3CC015F03DC016F0000E13
:10007800186E0A0E176E2FEC0BF015C03CF016C068
:100088003DF0D00E2D6EFF0E2E6E21C0F6FF22C061
:10009800F7FF0800F5502F6E306A2D502F262E508E
:1000A80030222F503C2630503D22214A222A21C09E
:1000B800F6FF22C0F7FF0800F55066EC0BF0D8A059
:1000C80044D0D1D73B8E5BD03C50345C3D50355842
:1000D800D8B005D034503C5E35503D5A08D0000E9B
:1000E8003D6E000E3C6E03D0200E9BEC0BF03C06E0
:1000F800D8A03D063C28F8E13D28D8B40AD0F4D76A
:1001080032C0D9FF33C0DAFFDF509BEC0BF0324A24
:10011800332A3406D8A035063428F2E13528D8B475
:1001280031D1EED737C0D9FF38C0DAFFDF503E6E85
:10013800020E3726000E38223E0E326E000E336E47
:10014800000E356E010E346EBFD721C0F6FF22C0F7
:10015800F7FF214A222A0800F5CF3EF03E50000A58
:10016800D8B41200630AD8B4DDD7070AD8B407D0C8
:100178000D0AD8B404D0110AD8B4A4D7DDD73BBE31
:1001880015D037C0D9FF38C0DAFFDECF39F0DDCF60
:100198003AF0020E3726000E38223AAE44D0030E4B
:1001A8003B12396C3A1ED8B03A2A3DD037C0D9FF35
:1001B80038C0DAFFDECF39F0DDCF3AF0020E37264D
:1001C800000E382230D0010E3E6E050E3E18D8B40F
:1001D80032D03E50020DCC0EF324F66EFE0EF42003
:1001E800F76E0900F550395C0900F5503A58D8A067
:1001F80022D03E2AEAD7010E3E6E040E3E18D8B42D
:100208001AD03E50020DD60EF324F66EFE0EF420E0
:10021800F76E0900F550395C0900F5503A58D8A036
:100228000AD03E2AEAD73B50800B000AD8B4CBD775
:10023800800AD8B4E0D73C503D10D8B409D03BC0B0
:100248002DF0030E2D16D8B403D03C06D8A03D06D9
:10025800800E3EBE7F0E2D6E3C503E5C3D50800AA7
:100268002D58D8B007D03E503C5E000E3EBEFF0E63
:100278003D5A04D0000E3D6E000E3C6E3BA414D0D7
:100288003BC02DF0030E2D16D8B403D02D0E9BECD9
:100298000BF03C503D10D8B41ED0300E9BEC0BF048
:1002A8003C06D8A03D06F5D73C503D10D8B40AD03E
:1002B800200E9BEC0BF03C06D8A03D063C503D10B0
:1002C800D8A4F6D73BC02DF0030E2D16D8B403D012
:1002D8002D0E9BEC0BF03EC036F050D03650020D80
:1002E800CC0EF324F66EFE0EF420F76E0900F5CF5F
:1002F80017F00A00F5CF18F039C015F03AC016F01B
:100308005BEC0AF015C01CF016C01DF0000E1F6E45
:100318000A0E1E6EEEEC0AF01C50300F3E6E2BD00B
:1003280039C015F03AC016F03650020DD60EF32437
:10033800F66EFE0EF420F76E0900F5CF17F00A00EE
:10034800F5CF18F05BEC0AF015500F0B316E3150F9
:10035800010D130EF324F66EFF0EF420F76E08005D
:10036800F5CF3EF008D03B50800B000AD8B4B6D782
:10037800800AD8B4D5D73E509BEC0BF03606362809
:10038800D8A4F1D721C0F6FF22C0F7FF214A222ABC
:100398000800F5CF3EF03E50D8B412003BD6000E10
:1003A8000101726F010E716F1FD1010E6E6F010E88
:1003B800A5EC0BF0C30E01016A6FCD0EE82EFED737
:1003C8006A2FFCD7000E0101706F000E6F6F34D0DA
:1003D800FDC0D9FFFEC0DAFF300EDF6E000120EE4F
:1003E80001F0FD51D926FE51DA22300EDF6E20EEE3
:1003F80002F0FD51D926FE51DA22300EDF6E20EED2
:1004080003F0FD51D926FE51DA22300EDF6E240E9C
:10041800216EFF0E226E09EC00F021D0930E216EA2
:10042800FF0E226E09EC00F01AD0E50E216EFF0EC9
:10043800226E09EC00F013D071C16AF172C16BF140
:1004480001016B51000AD8A40AD06A51010AD8B434
:10045800BFD7030AD8B4E2D7010AD8B4E6D7C00E8A
:10046800A5EC0BF0DA0E216EFF0E226E09EC00F0FF
:10047800A4D0000E0CEC05F00101736F7CD06F5115
:100488007011D8B49AD0000E6E6F97D0310E7319D0
:10049800D8B40CD0320E7319D8B408D0330E7319EF
:1004A800D8B404D0340E7319D8A43ED07105721193
:1004B800D8A43AD0705138E1040E6F5DD8B034D06A
:1004C800CF0E6A6FFF0E6B6F73516C6F6D6B6A5155
:1004D8006C276B516D23ED0E6C25F66EFE0E6D21AB
:1004E800F76E0800F5509BEC0BF0CF0E01016A6F18
:1004F800FF0E6B6F73516C6F6D6B6A516C276B518C
:100508006D23ED0E6C25F66EFE0E6D21F76E6F51A4
:100518000001FD25D96E010170510001FE21DA6E3E
:100528000800F5CFDFFF23D0020E71197211D8B47D
:1005380005D0030E71197211D8A43FD06F517011F4
:10054800D8A43BD073519BEC0BF0020E010171252E
:100558006A6F000E72216B6F6A510001FD25D96E1A
:1005680001016B510001FE21DA6E73C1DFFF010149
:100578006F4B702B22D07351230AD8B480D7130A3B
:10058800D8B484D7010AD8B481D7030AD8B47ED79F
:10059800010AD8B47BD7070AD8B478D7010AD8B4E7
:1005A80075D7030AD8B472D7010AD8B46FD70F0A1F
:1005B800D8B46CD7010AD8B469D701016E51D8A450
:1005C80058D771C121F072C122F0FDC023F0FEC0DE
:1005D80024F001EC03F00009D8B404D00101714BF8
:1005E800722B02D0CDEC0AF00101725105E1040E24
:1005F800715DD8B01200D9D6120021EE00F010EECD
:1006080080F0630EDBCFE3FFE806FCE220EE5CF04F
:1006180010EEF1F0070EDBCFE3FFE806FCE2DE0E9A
:10062800F66EFE0EF76E20EEE9F0070E0900F5CF24
:10063800DEFFE806FBE2DCD0000E0001FC6F000ED6
:10064800FB6FFC5115E1040EFB5DD8B011D0FB51D6
:100658002324D96EFC512420DA6EE40EFB25E16ECA
:10066800000EFC21E26EDFCFE7FFFB4BFC2BE9D746
:10067800000EE86F000EFC6F000EFB6FFC5124E1CA
:10068800140EFB5DD8B020D0E40E1B6E000E1C6E5D
:10069800FBC015F0FCC016F0000E186E050E176EA4
:1006A8002FEC0BF0800E15241D6E000E16201E6E0A
:1006B800AAEC0AF01B501C10D8A402D0010E12009C
:1006C8000001FB4BFC2BDAD7000E1200000E0001D4
:1006D800FC6F000EFB6FFC5156E1040EFB5DD8B0B9
:1006E80052D020EE04F02350D9262450DA22DF50CD
:1006F800256ED00E2524F96FFA6BFF0EFA2329D048
:10070800F951F127FA51F223F151E95DF251EA5911
:10071800D8B036D0000E1200F951F327FA51F4235D
:10072800F351EB5DF451EC59F3D7F951F527FA5130
:10073800F623F551ED5DF651EE59EAD7F951F72751
:10074800FA51F823F751EF5DF851F059E1D7000E4F
:100758001200FB512324D96EFC512420DA6EDF509D
:10076800300AD8B40DD0720AD8B4CAD70C0AD8B493
:10077800D3D71D0AD8B4D9D7040AD8B4DFD7E7D756
:10078800FB4BFC2BA8D7F551F325256EF651F42128
:10079800266EF7512526F8512622F1512526F251C9
:1007A8002622265006E1050E255CD8B002D0010E9F
:1007B8001200000E1200010E1200000E120020EEB0
:1007C80005F02350D9262450DA22DF50340AD8B451
:1007D800F2D7010AD8B4EFD7030AD8B4ECD7010A84
:1007E800D8B4E9D70F0AD8B4E6D7E7D7000E120075
:1007F80021C025F022C026F02650000AD8A4F6D73A
:100808002550010AD8B418D7030AD8B45FD7010A0B
:10081800D8B4D5D7EBD720EE02F01B50D9261C5000
:10082800DA22DF501F6E1F3A0F0E1F160F0E1F160B
:100838001F500A0D20EE02F01B50D9261C50DA2258
:10084800DF50206E0F0E20162050F324236E000E6A
:10085800F420246E20EE01F01B50D9261C50DA2219
:10086800DF501F6E1F3A0F0E1F160F0E1F161F5058
:100878000A0D20EE01F01B50D9261C50DA22DF5059
:10088800206E0F0E20162050F324256E000EF42043
:10089800266E1BC0D9FF1CC0DAFFDF501F6E1F3A3F
:1008A8000F0E1F160F0E1F161F500A0D1BC0D9FF63
:1008B8001CC0DAFFDF50206E0F0E20162050F324E4
:1008C800276E000EF420286E20EE02F01D50D92667
:1008D8001E50DA22DF501F6E1F3A0F0E1F160F0E22
:1008E8001F161F500A0D20EE02F01D50D9261E506B
:1008F800DA22DF50206E0F0E20162050F324296EC6
:10090800000EF4202A6E20EE01F01D50D9261E504C
:10091800DA22DF501F6E1F3A0F0E1F160F0E1F161A
:100928001F500A0D20EE01F01D50D9261E50DA2264
:10093800DF50206E0F0E20162050F3242B6E000E71
:10094800F4202C6E1DC0D9FF1EC0DAFFDF501F6EC9
:100958001F3A0F0E1F160F0E1F161F500A0D1DC02F
:10096800D9FF1EC0DAFFDF50206E0F0E2016205070
:10097800F3242D6E000EF4202E6E23C015F024C033
:1009880016F00E0E186E100E176E2FEC0BF015C029
:100998001FF016C020F025C015F026C016F0000E76
:1009A800186E3C0E176E2FEC0BF015501F261650C4
:1009B800202227501F26285020221F1E201E1F4A93
:1009C800202A29C015F02AC016F00E0E186E100E37
:1009D800176E2FEC0BF015C021F016C022F02BC0BB
:1009E80015F02CC016F0000E186E3C0E176E2FEC8A
:1009F8000BF015502126165022221F502126205078
:100A080022222D5021241B6E2E5022201C6E1200F3
:100A1800576E5750D8B45BD0FBEC09F0480E186EEF
:100A2800000E196E5AEC09F0020E1B6E0F0E0FEC39
:100A38000BF04DD05750D8B44AD04F0E186E000E58
:100A4800196E5AEC09F04F0E1D6E000E1E6E480E00
:100A58001B6E000E1C6E0FEC04F01BC02FF01CC0A8
:100A680030F054EC0BF02FC032F030C033F031C00E
:100A780034F0000E356E000E366E3F0E376E92EC77
:100A880008F0D8A024D0FBEC09F0020E1B6E0F0E64
:100A98000FEC0BF0000E596E000E586E59BE06D0C2
:100AA800595015E1070E585CD8B011D04F0E582494
:100AB800D96E000E5920DA6E480E5824E16E000EE9
:100AC8005920E26EDFCFE7FF584A592AE7D781A2BB
:100AD800B1D781380F0B0F0B566E48D05750D8B48A
:100AE80045D04F0E186E000E196E5AEC09F04F0ED5
:100AF8001D6E000E1E6E480E1B6E000E1C6E0FEC57
:100B080004F01BC02FF01CC030F054EC0BF02FC0C9
:100B180032F030C033F031C034F0000E356E000EC4
:100B2800366E3F0E376E92EC08F0D8A01FD0FBEC63
:100B380009F0000E596E000E586E59BE06D0595075
:100B480015E1070E585CD8B011D04F0E5824D96E55
:100B5800000E5920DA6E480E5824E16E000E592016
:100B6800E26EDFCFE7FF584A592AE7D781B2B6D7F6
:100B780000F05650010DBB0EF324F66EFE0EF42065
:100B8800F76E0800F5501200010EA5EC0BF0C30E2D
:100B98005A6ECD0EE82EFED75A2EFCD700F0F00E76
:100BA800216EFF0E226E000120EE05F08051D9263D
:100BB8008151DA22DF505A6E5A50236E246A09ECAA
:100BC80000F0000E0001876F000E866F87BF06D009
:100BD80087511BE1040E865DD8B017D08651802559
:100BE800D96E87518121DA6E300EDE18D8B40DD057
:100BF80086518025D96E87518121DA6EDF509BECB2
:100C08000BF00001864B872BE1D7F90E216EFF0E02
:100C1800226E20EE04F08051D9268151DA22DF506D
:100C28005A6E5A50236E246A09EC00F0C00EA5ECE7
:100C38000BF0350E216EFF0E226E84C023F085C0A6
:100C480024F009EC00F0000E0CEC05F0410AD8A4E1
:100C5800FAD7010EA5EC0BF0C30E5A6ECD0EE82E96
:100C6800FED75A2EFCD700F0840E216EFF0E226E9E
:100C780082C0D9FF83C0DAFFDECF23F0DDCF24F0B6
:100C8800000120EE02F08251D9268351DA22DECF0C
:100C980025F0DDCF26F009EC00F0C00EA5EC0BF036
:100CA800A20E216EFF0E226E000120EE04F082518A
:100CB800D9268351DA22DECF23F0DDCF24F020EECF
:100CC80006F08251D9268351DA22DECF25F0DDCF16
:100CD80026F009EC00F0000E0CEC05F0410AD8B43F
:100CE8001200F9D7010E0101786F84EC0AF090EC3C
:100CF8000BF05AD0010EA5EC0BF0C30E0001FF6FEC
:100D0800CD0EE82EFED7FF2FFCD7C00EA5EC0BF0BA
:100D1800450E216EFF0E226E09EC00F0010E0CEC60
:100D280005F0410AD8A4FAD7010E0101776F010E28
:100D3800A5EC0BF0C30E0001FF6FCD0EE82EFED719
:100D4800FF2FFCD7C00E216EFF0E226E09EC00F0BB
:100D5800C00EA5EC0BF0650E216EFF0E226E09EC9D
:100D680000F01BD0000E0CEC05F00101766F0BD0E3
:100D7800000E786F05D0F7EC06F0000E010101D0E7
:100D8800000E776F0AD07651410AD8B4F1D7030A1A
:100D9800D8B4F1D7010AD8B4F3D701017851D8B43F
:100DA80003D07751D8A4DED701017851D8A4A2D7AF
:100DB80074C1FDF075C1FEF0D3EC01F0010EA5EC95
:100DC8000BF0C30E0001FF6FCD0EE82EFED7FF2FEC
:100DD800FCD7CD0E216EFF0E226E09EC00F0C00E7E
:100DE800A5EC0BF0120020EE65F010EE8FF0050E6A
:100DF800DBCFE3FFE806FCE221EE97F010EE95F07A
:100E0800070EDBCFE3FFE806FCE2000E00019F6F50
:100E1800000E9E6F010E9D6F010EA5EC0BF0C30E28
:100E28005B6ECD0EE82EFED75B2EFCD700F0B10E20
:100E3800216EFF0E226E09EC00F0C00EA5EC0BF03F
:100E4800550E216EFF0E226E09EC00F016D0000E32
:100E58000CEC05F00001A06F03D0000E9D6F0DD0C3
:100E6800A051410AD8B4F9D7030AD8B4F6D7010A71
:100E7800D8B4F3D7070AD8B4F0D700019D51D8A445
:100E8800E6D78F0E156E000E166E950E176E000EB5
:100E9800186E9EC019F09FC01AF0880E1B6E000EC7
:100EA8001C6EA0C01DF0C8EC0BF08F0E0001806F07
:100EB800000E816F950E826F000E836F9EC084F0C6
:100EC8009FC085F0C8EC05F012000600FACF03F0C9
:100ED800FBCF04F0E9CF05F0EACF06F0E1CF07F049
:100EE800E2CF08F0D9CF09F0DACF0AF0F3CF0BF050
:100EF800F4CF0CF0F6CF0DF0F7CF0EF0F8CF0FF0DF
:100F0800F5CF10F06BC011F06CC012F06DC013F08B
:100F18006EC014F0F0B6F0A024D089A002D0010E63
:100F280001D0000EFF0A016E89500118FE0B01184E
:100F3800896E080E026E9D0E016E060EE82EFED713
:100F4800012EFCD7022EFAD789A002D0010E01D0BB
:100F5800000EFF0A016E89500118FE0B0118896EF8
:100F6800F09014C06EF013C06DF012C06CF011C098
:100F78006BF010C0F5FF0FC0F8FF0EC0F7FF0DC0F3
:100F8800F6FF0CC0F4FF0BC0F3FF0AC0DAFF09C07C
:100F9800D9FF08C0E2FF07C0E1FF06C0EAFF05C0AD
:100FA800E9FF04C0FBFF03C0FAFF6B92110021EEBA
:100FB80064F011EE91F0050EDBCFE3FFE806FCE2EA
:100FC80021EE9FF011EE79F0070EDBCFE3FFE80684
:100FD800FCE2000E896E000E8A6E000E8B6E000E0B
:100FE8008C6E000E8D6E000E926E9368E00E946EFD
:100FF800000E956E000E966E000EC26E0F0EC16E3C
:10100800910E0101746F010E756F76EC06F0810E7A
:10101800186E010E196E5AEC09F0910E156E010E3C
:10102800166E83EC0BF0880E186E010E196E5AECD2
:1010380009F0810E1B6E010E1C6E880E1D6E010ECE
:101048001E6E0FEC04F01BC08FF11CC090F1910EC6
:101058000001806F010E816F790E826F010E836F20
:101068008FC184F090C185F0C8EC05F0C9D718503D
:10107800D8B405D0155016101710D8A40CD0000EEF
:10108800156E000E166E000E176E1200182AD890F4
:10109800173216321532000E15141A6E000E161479
:1010A8001B6EFE0E17141C6E1A501B101C10D8B4A1
:1010B8000CD0ECD7182A010E1526000E1622000EA9
:1010C8001722D890173216321532000E15141A6EE0
:1010D800000E16141B6EFF0E17141C6E1A501B10F0
:1010E8001C10D8B406D0E6D71806D8901536163690
:1010F800173616BE03D0020E1860F6D718A0169E33
:10110800D8901832185017121950D8A4178E15C035
:1011180015F016C016F017C017F0120034AE16D02E
:1011280032C038F033C039F034C03AF0381E391EB6
:101138003A1E382A000E39223A22000E3824326E1E
:10114800000E3920336E800E3A20346E37AE16D03A
:1011580035C038F036C039F037C03AF0381E391E7D
:101168003A1E382A000E39223A22000E3824356EEB
:10117800000E3920366E800E3A20376E000E321A75
:10118800000E331A800E341A000E351A000E361A65
:10119800800E371A3550325C365033583750345831
:1011A800D8B002D0D8901200D8801200000E1D6E60
:1011B800000E1E6E000E1F6E000E206E19501A10C3
:1011C8001B101C10D8B42AD0010E216E06D0D8905E
:1011D80019361A361B361C36212A1CAEF8D7D89079
:1011E8001D361E361F3620361950155C1A501658F3
:1011F8001B5017581C501858D8A009D01950155E04
:101208001A50165A1B50175A1C50185A1D80D8903D
:101218001C321B321A321932212EE1D71DC015F0AB
:101228001EC016F01FC017F020C018F01200166E6E
:101238001650F00B156E8C500F0B8C6E15508C10D1
:101248008C6E000EF2BE010E646EF29E8C86530EFA
:10125800E82EFED700F08C96C80E00D0E82EFDD7F9
:1012680064B002D0F29E01D0F28E1638F00B166EE2
:101278001650F00B156E8C500F0B8C6E15508C1091
:101288008C6E000EF2BE010E646EF29E8C86530EBA
:10129800E82EFED700F08C96C80E00D0E82EFDD7B9
:1012A80064B002D0F29E01D0F28E1200C1EC0BF0B5
:1012B800000E176ED00E166EB8EC0BF0000E176EFF
:1012C800000E166EB8EC0BF0BDEC0BF0C1EC0BF099
:1012D800000E176ED10E166EB8EC0BF0000E1A6EDB
:1012E800050E1A6401D00ED01A50010DF3501824BF
:1012F800D96EF4501920DA6E000E42EC0BF0DF6E56
:101308001A2AEED720EE06F01850D9261950DA22FC
:10131800010E42EC0BF0DF6EBDEC0BF01200423018
:101328003030004E303030005330303000573030DD
:101338003000424E30300042533030004257303097
:101348000042424E30004242533000424257300081
:10135800424E5730004253573000425757300042F0
:101368004E57570042535757004242535700424284
:101378004E5700424E4E5700424E4E4E004257576F
:101388005700303030303030260EF66E130EF76EC0
:10139800000EF86E01EE00F010EE6AF00900F5CFCD
:1013A800EEFFE550E150FAE18A0EF66E170EF76E81
:1013B800000EF86E00EE65F010EE06F00900F5CFAD
:1013C800EEFFE550E150FAE101EE97F0100EEE6AFB
:1013D800E806FDE100EE5CF0090EEE6AE806FDE1C4
:1013E8006B906B92000EF86E0001DBEF07F0410E78
:1013F800186E000E196E5AEC09F0800EA5EC0BF071
:10140800410E3F6EEE0EE82EFED73F2EFCD700D0E1
:10141800F80E216EFE0E226E45C023F0246A46C0E7
:1014280025F0266A47C027F0286A43C029F02A6AAF
:1014380042C02BF02C6A09EC00F0060E406ED60E66
:101448003F6E7C0EE82EFED73F2EFCD7402EFAD7F3
:101458001200C69A94869488800EC76E280EC66EAF
:10146800000EC56E000E156E5A0E166E620E176EC1
:10147800020E186E22C026F023C027F024C028F0E0
:1014880025C029F0020ED890263627362836293668
:10149800E82EF9D726C019F027C01AF028C01BF08B
:1014A80029C01CF0DAEC08F01504C86E1200000E12
:1014B8001B6E000E1A6E17501810D8B41CD0010EEF
:1014C800196E04D0D89017361836192A18AEFAD7DC
:1014D800D8901A361B361750155C18501658D8A0D5
:1014E80005D01750155E1850165A1A80D890183221
:1014F8001732192EEDD71AC015F01BC016F01200BE
:10150800C30E186ECD0EE82EFED7182EFCD700F0AD
:10151800330EA5EC0BF0320EA5EC0BF0280EA5EC63
:101528000BF00F0EA5EC0BF0060EA5EC0BF0010E60
:10153800A5EC0BF0C30E186ECD0EE82EFED7182EB4
:10154800FCD700F00F0EA5EC0BF0120004D01B4ADC
:101558001C2A1D4A1E2A1BC0D9FF1CC0DAFFDF50F7
:101568001F6E1DC0D9FF1EC0DAFFDF5000081F2400
:10157800206E2050D8A407D01BC0D9FF1CC0DAFFAA
:10158800DF50D8A4E4D720501B6E1C6A1BBE1C0673
:101598001200010EA5EC0BF0C30E5A6ECD0EE82E0C
:1015A800FED75A2EFCD700F0750E216EFF0E226E64
:1015B80009EC00F0C00EA5EC0BF03F0E216EFF0EFB
:1015C800226E09EC00F0000E0CEC05F0410AD8B4CC
:1015D8001200F9D71E501F10D8B418D0010E206E73
:1015E80004D0D8901E361F36202A1FAEFAD71E50B8
:1015F8001C5C1F501D58D8A004D01E501C5E1F50E4
:101608001D5AD8901F321E32202EF1D71CC01CF054
:101618001DC01DF012001E6E800EA5EC0BF0410ED1
:101628001C6EEE0EE82EFED71C2EFCD700D0000E46
:101638001D6E04D0C00EA5EC0BF01D2A1B501D5CBE
:10164800D8A0F8D71E50D8B41200010E186E1E503C
:1016580075EC0BF0120015501702F3CF19F0F4CF08
:101668001AF015501802F3501A2616501702F350A4
:101678001A2619C015F01AC016F01200166EAFEC33
:101688000BF0C586AFEC0BF0C9CF17F0AFEC0BF041
:1016980016B002D0C59A01D0C58AC5881750120065
:1016A8002FC015F030C016F0176A8E0E186E000E97
:1016B800196E3BEC08F015C02FF016C030F017C0BB
:1016C80031F01200176E000E166E3A0E176005D034
:1016D8002F0E176402D0010E166E16C015F01530C5
:1016E8001200196E19C01AF01A50D8B41200184412
:1016F800E846FC0B1009A5EC0BF01A06F5D7990E75
:10170800186E310E176EA20EE82EFED7172EFCD7D4
:10171800182EFAD700D01200A00E226E860E236E65
:10172800010E246E000E256E2DEC0AF01200176EC5
:101738008C8417501BEC09F0C80E00D0E82EFDD79A
:101748001200176E8C9417501BEC09F0C80E00D0CD
:10175800E82EFDD71200C7B4FED7C5CF15F01F0E6F
:101768001516D8B41200F7D7AFEC0BF016C0C9FFA6
:101778001200AFEC0BF0C5841200AFEC0BF0C58083
:0A1788001200303030303030120013
:10FEBA00003132334134353642373839432A302318
:10FECA00440001000A006400E80310270100100042
:10FEDA000001001002000300020004000053150193
:10FEEA00050218424E53570000010210022825301D
:10FEFA0032782F253032782F32302530327820254B
:10FF0A003032783A2530327800303132333435366F
:10FF1A00373839616263646566005345543F20315E
:10FF2A003233343D7B424E53577D0054494D453A56
:10FF3A002564532E20484954204100434F4E5449CA
:10FF4A004E55453F204849542041004F4C444553A3
:10FF5A00543A20412C422C432C4400422D4C4F470A
:10FF6A002C4F5220432D4241434B00494E56414C9F
:10FF7A00494420494E50555421004C4546543A2094
:10FF8A002564422C25644E2C004E554D2053455471
:10FF9A00532F535445503F002564532C2564572E44
:10FFAA00204849542041004C4F4753204E4557455D
:10FFBA00535420544F0048495420412D5354415220
:10FFCA00542C004F5045524154494E472E2E2E0074
:10FFDA00232D434F4E4649524D20004E554D205336
:10FFEA00544550533F00444F4E453A25635B0078D1
:05FFFA0025635D00001D
:020000040020DA
:08000000FFFFFFFFFFFFFFFF00
:020000040030CA
:0E000000FF061F1EFF8181FF0FC00FE00F40A3
:00000001FF
